:0400000002004B327D
:01000B0032C2
:0100130032BA
:01001B0032B2
:030023000205F9DA
:01002B0032A2
:01003300329A
:01003B003292
:03004300020707AA
:0600A4007508007509005B
:0300DA00020046DB
:0500460012046880FEB9
:0E00DD00C2AF758203121295C286D28685A02C
:0E00EB00C2C286D28685A097C286D28685A024
:0E00F900C2C286D28685A097C286D28685A016
:0E010700C2C286D28685A097C286D28685A007
:0E011500C2C286D28685A097C286D28685A0F9
:0E012300C2C286D28685A097C286D28685A0EB
:0E013100C2C286D28685A097C286D28685A0DD
:0E013F00C2C286D28685A097C286D28685A0CF
:0E014D00C2C286D28685A097C286D28685A0C1
:0E015B00C2C286D28685A097C286D28685A0B3
:0E016900C2C286D28685A097C286D28685A0A5
:0E017700C2C286D28685A097C286D28685A097
:0E018500C2C286D28685A097C286D28685A089
:0E019300C2C286D28685A097C286D28685A07B
:0E01A100C2C286D28685A097C286D28685A06D
:0E01AF00C2C286D28685A097C286D28685A05F
:0E01BD00C2C286D28685A097C286D28685A051
:0E01CB00C2C286D28685A097C286D28685A043
:0E01D900C2C286D28685A097C286D28685A035
:0E01E700C2C286D28685A097C286D28685A027
:0E01F500C2C286D28685A097C286D28685A019
:0E020300C2C286D28685A097C286D28685A00A
:0E021100C2C286D28685A097C286D28685A0FC
:0E021F00C2C286D28685A097C286D28685A0EE
:0E022D00C2C286D28685A097C286D28685A0E0
:0E023B00C2C286D28685A097C286D28685A0D2
:0E024900C2C286D28685A097C286D28685A0C4
:0E025700C2C286D28685A097C286D28685A0B6
:0E026500C2C286D28685A097C286D28685A0A8
:0E027300C2C286D28685A097C286D28685A09A
:0E028100C2C286D28685A097C286D28685A08C
:0E028F00C2C286D28685A097C286D28685A07E
:0E029D00C2C286D28685A097C286D28685A070
:0E02AB00C2C286D28685A097C286D28685A062
:0E02B900C2C286D28685A097C286D28685A054
:0E02C700C2C286D28685A097C286D28685A046
:0E02D500C2C286D28685A097C286D28685A038
:0E02E300C2C286D28685A097C286D28685A02A
:0E02F100C2C286D28685A097C286D28685A01C
:0E02FF00C2C286D28685A097C286D28685A00E
:0E030D00C2C286D28685A097C286D28685A0FF
:0E031B00C2C286D28685A097C286D28685A0F1
:0E032900C2C286D28685A097C286D28685A0E3
:0E033700C2C286D28685A097C286D28685A0D5
:0E034500C2C286D28685A097C286D28685A0C7
:0E035300C2C286D28685A097C286D28685A0B9
:0E036100C2C286D28685A097C286D28685A0AB
:0E036F00C2C286D28685A097C286D28685A09D
:0E037D00C2C286D28685A097C286D28685A08F
:0E038B00C2C286D28685A097C286D28685A081
:0E039900C2C286D28685A097C286D28685A073
:0E03A700C2C286D28685A097C286D28685A065
:0E03B500C2C286D28685A097C286D28685A057
:0E03C300C2C286D28685A097C286D28685A049
:0E03D100C2C286D28685A097C286D28685A03B
:0E03DF00C2C286D28685A097C286D28685A02D
:0E03ED00C2C286D28685A097C286D28685A01F
:0E03FB00C2C286D28685A097C286D28685A011
:0E040900C2C286D28685A097C286D28685A002
:0E041700C2C286D28685A097C286D28685A0F4
:0E042500C2C286D28685A097C286D28685A0E6
:0E043300C2C286D28685A097C286D28685A0D8
:0E044100C2C286D28685A097C286D28685A0CA
:0E044F00C2C286D28685A097C286D28685A0BC
:0B045D00C2C286D28685A097D2AF22D3
:0E04680053D9BF43B28375B90043B98043B97D
:07047600C090012C12127A64
:05047D00E5B9B4010027
:0E048200E433FA20E5F575A90285A9A975F203
:0E049000FF75D44075D5007580FF7590FF751F
:0E049E00A0FF75A4DF75A5DE75A60075E10B45
:0304AC0075E240B6
:0B04AF00E59620E7FB759601759708A5
:0B04BA00E59620E7FB75960775970F8D
:0B04C500E59620E7FB75960975970887
:0E04D000E59620E7FB75960B75970775D7E04C
:0E04DE00E59620E7FB75960F75978043E602C2
:0E04EC00E59620E7FB759601759701538EEC9F
:0E04FA00438E01758DFF758BFF43892053895A
:0B0508002FD28E75A800759810D2AF9E
:0A051300E56B60FCC2971200DD12D8
:06051D0000DD1200DD12FA
:0605230000DD1200DD12F4
:0605290000DD1200DD12EE
:0A052F0000DDC2AF758203121295C1
:0C053900E59620E7FB759611759701759B
:080545006B00D2AFD29780C613
:0E16530012011001FFFFFF40C016E209010066
:04166100010203017E
:0916650009022700010100C02068
:09166E000904000003FFFFFF0066
:07167700070581024000009D
:07167E000705020240000015
:0716850007058302000400C9
:02168C009416B2
:02168E009716AD
:02169000A91699
:02169200C1167F
:0316940009040046
:0E16970043726173682042617272696572204D
:0416A5004C7464001D
:0E16A900576869726C7967696720485720524C
:0A16B700616E646F6D2047656E00E0
:0716C1003030303030310001
:0700AA00750A00750B0075DB
:0600B1000C01750D007545
:0600B7000E00750F00753C
:0600BD0010007511007532
:0200C300120029
:0B054D00AA82AB0B7C000BBB00010C72
:0C05580053031F7C00AD0A7E00EBB505CC
:0905640008ECB506049000002229
:08056D00E50B2420F582E434C3
:0A05750000F583EAF0C2ACE50C606B
:05057F00048A998007C9
:07058400E50B04541FF50B09
:09058B00750C00D2AC90000122B5
:08059400AA82AB83ACF0AD13A9
:06059C008D061DEE602E2D
:0E05A2008A828B838CF0121633F582C002C061
:0E05B00003C004C00512054DE5828583F0D01E
:0E05BE0005D004D003D00245F060D90ABA007F
:0405CC00CF0B80CC05
:0105D0002208
:0905D100E50FB5100490FFFF22B4
:0805DA00E50F2440F582E43432
:0A05E20000F583E0FAC2ACE50F0457
:0C05EC00541FF50FD2AC7B008A828B8379
:0105F80022E0
:0E05F900C0E0C082C083C002C003C004C005C1
:0C060700C0D075D000309836AA107B00DF
:050613000ABA00010B12
:0C06180053021F7B00AC0F7D00EAB5040C
:0A06240009EBB505057512018015FC
:08062E00E5102440F582E434DC
:0A06360000F583E599F0E510045487
:030640001FF51093
:02064300C2985B
:0A064500309934E50BB50A02802855
:08064F00E50A2420F582E434E1
:0706570000F583E0F50EE55C
:07065E000A2420F582E434B8
:0A06650000F583E0F599E50A04545E
:08066F001FF50A750C00800361
:03067700750C01FE
:02067A00C29923
:0E067C00D0D0D005D004D003D002D083D082DD
:03068A00D0E0328B
:0E068D00538EEC438E01758DFE758BFF4389F5
:0E069B002053892FD28E759810D2ACD299229E
:0700C5007531007532007572
:0500CC00330075340053
:0306A900752102B6
:0B06AC00E59620E7FB75960B75970D97
:0C06B700E59620E7FB759601759701752C
:0606C300310075320375E1
:0306C900330322D6
:0B06CC00E59620E7FB75960E75970180
:0806D700E59620E7FB75969102
:0C06DF00E59620E7FBAA977403B5320CE7
:0C06EB00E59620E7FB759611759710222C
:0406F700EA30E50BF5
:0B06FB00E59620E7FB7596117597004F
:0107060022D0
:0C070700C020C0E0C0F0C082C083C0026F
:0E071300C003C004C005C006C007C000C0017E
:05072100C0D075D000FE
:08072600E59620E7FB75968EB5
:07072E00E59620E7FBAA9706
:08073500E59620E7FB759686AE
:07073D00E59620E7FBAB97F6
:08074400E59620E7FB759682A3
:07074C00E59620E7FBAC97E6
:08075300E59620E7FB75968492
:0E075B00E59620E7FBAD97EB30E113C002C03E
:0E07690003C004C00512093DD005D004D00322
:02077700D002AE
:0D077900EB30E213C002C003C004C0051243
:0A07860006A9D005D004D003D0026C
:0D079000EC30E013C002C003C004C005122D
:0A079D00093ED005D004D003D002BD
:0D07A700EB30E313C002C003C004C0051214
:0A07B40006CCD005D004D003D0021B
:0E07BE00EC30E116758201C002C003C004C019
:0C07CC00051208EAD005D004D003D002CA
:0E07D800EC30E216758202C002C003C004C0FD
:0C07E600051208EAD005D004D003D002B0
:0E07F200EC30E312758203C002C003C0051292
:0808000008EAD005D003D00284
:0E080800ED30E112758201C002C003C005127E
:08081600087BD005D003D002DD
:0E081E00ED30E212758202C002C003C0051266
:08082C00087BD005D003D002C7
:0E083400ED30E30E758203C002C00312087B94
:04084200D003D0020D
:0B084600EB30E007C002120AEAD0020B
:0E085100E59620E7FB75960E8A97759622D0E5
:0E085F00D0D001D000D007D006D005D004D0F4
:0C086D0003D002D083D082D0F0D0E0D0C5
:0208790020322B
:02087B00AA824F
:0A087D00E59620E7FB75960E8A97BA
:08088700E59620E7FB7596944D
:0C088F00E59620E7FBAB97EA2431F886E1
:04089B0004BC030C8A
:0C089F00E59620E7FB7596147597202263
:0408AB00EB30E60B3D
:0B08AF00E59620E7FB75961475978016
:0808BA00E59620E7FB75969618
:0A08C200E59620E7FBE597FB700DBB
:0D08CC00E59620E7FB7596167597108005E0
:0508D9008A8212148068
:0C08DE00E59620E7FB7596147597002244
:0208EA00AA82E0
:0A08EC00E59620E7FB75960E8A974B
:0808F600E59620E7FB759691E1
:0C08FE00E59620E7FBAB97EA2431F88672
:04090A0004BC030C1A
:0C090E00E59620E7FB7596117597102206
:04091A00EB30E50BCE
:0B091E00E59620E7FB759611759740E9
:04092900EB30E20BC2
:0B092D00E59620E7FB7596117597001A
:050938008A8202142276
:01093D002297
:0B093E00E59620E7FB75960E7597000C
:08094900E59620E7FB7596918D
:0C095100E59620E7FBAA977406B5310E6E
:0C095D00E59620E7FB7596008524977551
:0209690031005B
:04096B00EA30E20F7D
:0C096F00E59620E7FB7596117597007562
:03097B0031002226
:04097E00EA30E4195E
:0B098200E59620E7FB759611759708BD
:0C098D00E59620E7FB75961175978075C4
:0209990031002B
:07099B00E5316003020A468A
:0709A200EA20E003020A460F
:0409A9007537227507
:0609AD00380075394075A9
:0A09B3003508E4F536758220C00215
:0C09BD00120AEBD002E523FB24F45003E7
:0309C900020A46D9
:0709CC00EB2B2B9009D37304
:0709D3000209F7020A00020D
:0609DA000A46020A0902B0
:0609E0000A46020A1202A1
:0609E6000A1B020A460292
:0609EC000A24020A2D029C
:0509F2000A36020A3F75
:0909F700C002120B82D0028046FE
:090A0000C002120C79D002803D05
:090A0900C002120D0DD002803470
:090A1200C002120DA1D002802BDC
:090A1B00C002120DE2D00280229B
:090A2400C002120F9ED0028019DD
:090A2D00C002121005D002801075
:090A3600C002121122D002800757
:070A3F00C002121175D00284
:070A46007401B531028001CB
:010A4D002286
:050A4E00EA30E1012285
:080A5300E59620E7FB75969182
:0E0A5B00E59620E7FBE597FA30E405EA30E087
:020A6900012268
:0A0A6B007A02C3E52A9440E52B94BB
:0A0A750000403D753A40E4F53B8572
:030A7F002E3C8585
:030A82002F3D8580
:080A8500303E758220C0021210
:090A8D000B2AD0027440252EF55D
:050A96002EE4352FF5F0
:060A9B002FE52A24C0F53E
:060AA1002AE52B34FFF5ED
:060AA7002B7440252CF524
:050AAD002CE4352DF5DD
:030AB2002D801A7A
:040AB500852A3A85CF
:030AB9002B3B854F
:030ABC002E3C8548
:030ABF002F3D8543
:060AC200303E7582201297
:070AC8000B2A7A0A753100C8
:060ACF00E528B52C0BE543
:080AD50029B52D064302087546
:020ADD003100E6
:0B0ADF00E59620E7FB7596118A972230
:010AEA0022E9
:0A0AEB00AA82E535453660368A968A
:070AF5004396C07A007B006C
:090AFC00C3EA9535EB9536502153
:0B0B0500E59620E7FBEA2537FCEB3506
:0A0B100038FDAE398C828D838EF023
:0C0B1A00E59712161A0ABA00D90B80D613
:030B2600759600C1
:010B290022A9
:080B2A00AA82E53A453B603563
:0B0B3200E59620E7FB8A967A007B0026
:0A0B3D00C3EA953AEB953B5021EA1C
:080B4700253CFCEB353DFDAE41
:0C0B4F003E8C828D838EF0121633F597D9
:0C0B5B00E59620E7FB0ABA00D90B80D613
:010B6700226B
:0B0B6800E59620E7FB75960E759700E0
:0C0B7300E59620E7FB759611759720753C
:030B7F003105221B
:090B8200E525700FE524700BE578
:0A0B8B002970077402B528028003E8
:030B9500120B68D8
:070B9800AA22BA8002800DC1
:050B9F00BA810280286C
:050BA400BA8202804846
:030BA900020C5CDF
:080BAC00E5277004E526600650
:060BB400120B68020C5F49
:040BBA00752ECA7555
:030BBE002F16757A
:070BC1003080752A02E4F503
:040BC8002B020C5F91
:0A0BCC007404B52108E5277004E564
:030BD60026600690
:060BD900120B68020C5F24
:040BDF00752ECA7530
:030BE3002F167555
:070BE6003080752A02E4F5DE
:040BED002B020C5F6C
:090BF1007404B52104E527600538
:050BFA00120B68806091
:0A0BFF007481B526277403B5321186
:040C0900752EC87507
:030C0D002F16752A
:070C10003080752A02E4F5B3
:030C17002B8045EA
:040C1A00752ECA75F4
:030C1E002F167519
:070C21003080752A02E4F5A2
:030C28002B8034EA
:0A0C2B007402B526277403B53311D7
:040C3500752EC875DB
:030C39002F1675FE
:070C3C003080752A02E4F587
:030C43002B8019EA
:040C4600752ECA75C8
:030C4A002F1675ED
:070C4D003080752A02E4F576
:030C54002B8008EA
:050C5700120B68800390
:030C5C00120B6810
:060C5F007405B53101220D
:0C0C6500E59620E7FB7596117597407529
:060C71003101E4F52CF551
:020C77002D222C
:0A0C79007404B5211AE522FA601593
:050C8300BA010280101F
:090C8800E525700CE5277008E574
:070C9100297004E52860054D
:050C9800120B688053FF
:0A0C9D007402B5224BE52470477481
:060CA70081B52602800564
:050CAD007402B5263BB6
:050CB2007481B5261B52
:0B0CB700E59620E7FB75960E7597018F
:0C0CC200E59620E7FB75961175974075CC
:040CCE003200801E52
:0B0CD200E59620E7FB75960E75970273
:0C0CDD00E59620E7FB759614759780756E
:040CE9003300800351
:030CED00120B687F
:0E0CF000E59620E7FB75960E7597007405B526
:030CFE003101229F
:0C0D0100E59620E7FB75961175974822D7
:0A0D0D007404B5211AE522FA6015FE
:050D1700BA010280108A
:090D1C00E525700CE5277008E5DF
:070D2500297004E5286005B8
:050D2C00120B6880536A
:0A0D31007402B5224BE524704774EC
:060D3B0081B526028005CF
:050D41007402B5263B21
:050D46007481B5261BBD
:0B0D4B00E59620E7FB75960E759701FA
:0C0D5600E59620E7FB7596117597107567
:040D62003203801EBA
:0B0D6600E59620E7FB75960E759702DE
:0C0D7100E59620E7FB7596147597207539
:040D7D0033038003B9
:030D8100120B68EA
:0E0D8400E59620E7FB75960E7597007405B591
:030D92003101220A
:0C0D9500E59620E7FB7596117597482243
:090DA100E5227019E5277015E543
:080DAA00267011E529700DE52A
:080DB200287009E5257005E534
:040DBA002430E703F7
:030DBE00120B68AD
:080DC100753106E5246005759B
:040DC900210380037F
:030DCD007521028B
:060DD0007405B53101229B
:0C0DD600E59620E7FB7596117597482202
:0A0DE200E525FA24FA5003020F4938
:070DEC00EA2A2A900DF373BF
:070DF300020F49020E050288
:060DFA000E17020E390283
:050E00000ECF020EE51B
:040E0500752E53757E
:030E09002F16752C
:070E0C003080752A12E4F5A5
:040E13002B020F4C53
:040E1700752E65755A
:030E1B002F16751A
:090E1E003080901667E493FA900D
:0C0E27001668E493FCE4FBFD4AF52AEC9D
:060E33004DF52B020F4CEF
:0A0E3900E52475F002A4248CF58274
:0C0E4300741635F0F583E493FAA3E493F1
:080E4F00FB753F02E4F5409041
:0B0E570000607402F09000617403F072
:0C0E62008A828B83E493FE6043AF3FACB8
:050E6E0040053FE4B562
:040E73003F020540F5
:0A0E7700EF2460F582EC3400F583EF
:050E81000ABA00010B9C
:070E8600EEF0AC3FAD4005AA
:060E8D003FE4B53F020541
:010E9300401E
:0A0E9400EC2460F582ED3400F583D4
:0E0E9E00E4F0900060E0FC0C0C900060ECF0C2
:020EAC0080B410
:040EAE00752E6075C8
:030EB2002F007599
:050EB5003000AA2EAB85
:0A0EBA002FAC308A828B838CF0127B
:060EC4001633FA8A2A75BC
:050ECA002B00020F4C9B
:040ECF00752E6E7599
:030ED3002F167562
:090ED600308090166EE493FA8A54
:060EDF002A752B0080675C
:070EE5007481B52402800CAA
:070EEC007402B52402800529
:050EF3007483B5244CDE
:070EF8007481B52416752E6C
:030EFF0077752FD5
:050F020016753080901F
:080F07001677E493FA8A2A75BB
:040F0F002B008039FA
:070F13007402B52416752ECF
:030F1A007E752FB2
:050F1D00167530809004
:080F2200167EE493FA8A2A7599
:040F2A002B00801EFA
:040F2E00752E857522
:030F32002F167502
:090F35003080901685E493FA8ADD
:060F3E002A752B0080085B
:050F4400120B688003A0
:030F4900120B6820
:070F4C007401B52502801AB3
:070F53007402B525028013B2
:070F5A007403B52502800CB1
:070F61007404B525028005B0
:050F68007405B525171A
:0A0F6D00AA287B00C3EA952AEB9541
:080F77002B500AE529700685E4
:030F7F00282A8598
:020F8200292B19
:060F84007405B5310122E5
:0C0F8A00E59620E7FB7596117597407501
:060F96003101E4F52CF529
:020F9C002D2204
:0A0F9E007480B5221BE5257017E5ED
:080FA800247013E527700FE52A
:0A0FB00026700BE52970077401B5E7
:040FBA002802800584
:050FBE00120B68802801
:070FC3007404B5210F752E27
:030FCA00C8752FB8
:050FCD0016753080756F
:050FD2002A01E4F52BEB
:070FD7007403B5210F752E14
:030FDE00CA752FA2
:050FE10016753080755B
:050FE6002A01E4F52BD7
:060FEB007405B53101227E
:0C0FF100E59620E7FB759611759740759A
:060FFD003101E4F52CF5C2
:021003002D229C
:071005007402B52102801EF8
:09100C00E522701AE5277016E5D3
:08101500267012E529700EE5BA
:08101D0028700AE5257006E5C4
:051025002424FE50062A
:06102A00120B6802111018
:07103000E524700302110723
:031037007521041C
:0B103A00E59620E7FB75960E75970108
:0B104500E59620E7FB759612759720DA
:0C105000E59620E7FB759611759740753A
:08105C0032007582011214221A
:0B106400E59620E7FB759611759701DB
:0B106F00E59620E7FB75960E759702D2
:0B107A00E59620E7FB759612759700C5
:0B108500E59620E7FB7596117597407B
:0B109000E59620E7FB7596157597802C
:0B109B00E59620E7FB75961475978022
:0C10A600E59620E7FB7596127597007523
:0810B2003300758202121422C2
:0B10BA00E59620E7FB75960E75970386
:0B10C500E59620E7FB7596127597205A
:0C10D000E59620E7FB75961175974075BA
:0810DC00340075820312142296
:0B10E400E59620E7FB7596117597015B
:0B10EF00E59620E7FB75960E75970054
:0D10FA00E59620E7FB75960E7597008009BE
:071107007521037532037529
:02110E003303A9
:061110007405B531012257
:0C111600E59620E7FB75961175974822BE
:0A1122007404B521207481B5221B6E
:09112C00E5257017E5247013E5B8
:0811350027700FE526700BE5A1
:0A113D002970077401B5280280052F
:05114700120B68800F8F
:04114C00752ECA75BD
:031150002F1675E2
:071153003080752A01E4F56C
:01115A002B69
:06115B007405B53101220C
:0C116100E59620E7FB7596117597407528
:06116D003101E4F52CF550
:021173002D222B
:08117500E59620E7FB75968E5C
:0C117D00E59620E7FBAA977401B5221844
:09118900E5297014E5287010E559
:0811920025700CE5247008E54E
:07119A00277004E526600741
:0711A100C002120B68D0022E
:0611A8007405B5310122BF
:0B11AE00E59620E7FB75960E75970193
:0B11B900E59620E7FB75961175974046
:0B11C400E59620E7FB7596127597205A
:0C11CF00E59620E7FB75961575970075F6
:0C11DB003200758201C002121422D00202
:0B11E700E59620E7FB75961175970157
:0B11F200E59620E7FB75960E7597034D
:0B11FD00E59620E7FB75961175974002
:0B120800E59620E7FB75961275972015
:0C121300E59620E7FB75961575970075B1
:0C121F003400758203C002121422D002B9
:0B122B00E59620E7FB75961175970112
:0B123600E59620E7FB75960E75970209
:0C124100E59620E7FB7596127597047582
:0C124D003300758202C002121422D0028D
:0B125900E59620E7FB75960E759700E8
:0A126400E59620E7FB75960E8A97C9
:0C126E00E59620E7FB7596117597482265
:0216C80001001F
:0216CA0000001E
:0700D1007541007562007526
:0200D8006B01BA
:08127A00AA82AB837C007D0019
:0E1282008C068D07C3EE9AEF9B50070CBC0044
:04129000F10D80EEEE
:011294002237
:02129500AA822B
:0A129700E59620E7FB74202AF59687
:0612A100E59620E7FB22A8
:0212A700AA8219
:0E12A900E59620E7FB74202AF5F074C045F0AE
:0212B700F596AA
:0612B900E59620E7FB2290
:0312BF008582978E
:0612C200E59620E7FB2287
:0912C800E59620E7FB85978222E0
:0912D100E59620E7FB759600226A
:0912DA008582637B017C007566CE
:0512E300427567007573
:0512E800684078647904
:0C12ED00007D40C003C004C005C000C06C
:0E12F900011212C8AE82D001D000D00588824A
:0E13070089838DF0EE12161A1212C8AD829074
:0A131500006575F040ED12161A1283
:0D131F0012C8AD82D004D003C293D295AEA7
:04132C0066AF67A899
:0313300068856469
:0313330069856564
:011336006A4C
:05133700A969AA6A1576
:07133C006974FFB569021599
:011343006A3F
:0A134400E94A6062E569456A70023B
:02134E00D29338
:08135000EB5D6004D294800201
:02135800C2943D
:0C135A00C292D292E563600D309505EB65
:0413660042048005B8
:05136A00EBF4FA52044F
:0A136F00E569456A6030EB30E72CB9
:0D1379007B01C003C004C006C007C0001205
:0E13860012C8AD82D000D007D006D004D0032C
:0E1394008E828F8388F0EC12161AA3AE82AF01
:0313A200838092B3
:0513A500EB2BFB808D25
:0513AA008E668F6788CC
:0A13AF0068E563601ABB01028015B7
:0E13B9008E828F8388F0EC12161A74012EF5C6
:0613C70066E43FF56788B3
:0113CD0068B7
:0813CE001212D1E563604CE549
:0513D60066C39442F51E
:0613DB0064E5679400F5D3
:0313E100657566C9
:0513E400427567007571
:0213E90068405A
:0B13EB00E59620E7FB759621AA66AB93
:0413F60067AC68ADCB
:0313FA0064AE6579
:0913FD008D078E001DBDFF011ECD
:0E140600EF4860178A828B838CF0121633F544
:0614140097A3AA82AB833E
:07141A00E59630E7DE80F9E2
:0114210022A8
:02142200AA829C
:0A142400E59620E7FB75960E8A9707
:08142E00E59620E7FB7596919D
:0C143600E59620E7FBE597FB30E0012283
:05144200BA0102800563
:05144700BA0335802509
:06144C00E5627015753C1D
:03145200CC753D19
:0514550016753E8075D4
:09145A003A12E4F53B75822112FF
:021463000B2A52
:0C146500E59620E7FB75961175970122B3
:03147100756B0197
:0B147400E59620E7FB759611759701C7
:01147F00224A
:0A148000AA82756C007562018A8271
:0D148A001212A71212C8AA82BA65028015BC
:05149700BA6602802886
:05149C00BA6702805058
:0514A100BA680280485A
:0514A600BA6902804C50
:0114AB00221E
:0514AC001212D1753C95
:0314B100DE753DA8
:0514B40016753E807575
:0914B9003A11E4F53B75822102B1
:0214C2000B2AF3
:0E14C4001212C8AA82C0021212C8AB82C00364
:0714D2001212D1D003D00279
:0714D9008A041AEC700122E5
:0E14E000EB139293C292D292EBC313FB80EBFC
:0314EE00756C0119
:0614F100856C820212DA94
:0C14F7007A6D7B007C40C002C003C00482
:081503001212C8AD828D717552
:0C150B0072001212C8AF82D004D003D0CE
:0E151700028A828B838CF0EF12161AA3AA822E
:0E152500AB83C002C003C0041212C8AF82D054
:0D15330004D003D0028A828B838CF0EF126B
:0E154000161AA3AA82AB83C002C003C0041215
:0E154E0012C8AF82D004D003D0028A828B83F1
:0E155C008CF0EF12161AA3AA82AB83C002C055
:0E156A0003C0041212C8AF82D004D003D00216
:0E1578008A828B838CF0EF12161A1212D1E5C4
:0A1586007145726037C293C292D221
:0E15900092D293C292D292C293C292D292D2BF
:0E159E0093C292D292D293C292D292C293C2C0
:0A15AC0092D292156D74FFB56D0C1C
:0615B600156EB56E07156D
:0515BC006FB56F021580
:0115C10070B9
:0715C200C293AA6DAB6EACF1
:0315C9006FAF7091
:0E15CC008A008B018C058F061ABAFF091BBB23
:0715DA00FF051CBCFF011F0F
:0C15E100E8494D4E6006C292D29280DFB5
:0A15ED00E57145726012D293C292BC
:0E15F700D292C293C292D292C293C292D29268
:04160500753C6C754F
:061609003D00753E407536
:09160F003A01E4F53B7582210269
:021618000B2A9B
:0E16CC00576869726C7967696720524E472033
:0416DA00312E30007D
:0E16DE00314A656B746F72202020202020207E
:0316EC00202000BB
:06007A00E478FFF6D8FD5A
:080058007900E94400601B7A05
:05006000009016EF788E
:030065009C75A0E7
:0A00680000E493F2A308B8000205BB
:08007200A0D9F4DAF275A0FF39
:0E161A0020F71030F6118883A88220F507F61D
:05162800A8837583009A
:01162D00229A
:03162E00F280F750
:02163100F022A5
:080080007800E84400600A79F1
:030088000075A060
:06008B0000E4F309D8FCBB
:08009100789CE84400600C7942
:0B00990001900000E4F0A3D8FCD9FAAD
:03004B0075817F3D
:0A004E0012164FE58260030200461F
:0E16330020F71430F6148883A88220F507E60D
:06164100A883758300225E
:03164700E280F747
:03164A00E4932204
:02164D00E02299
:04164F00758200227E
:00000001FF
